{
  "transactions": [
    {
      "hash": "0xa8c140205b08a6b0fa30c0b531e13190f4577bbc8b868f2aded7360ac8be87b4",
      "transactionType": "CALL",
      "contractName": null,
      "contractAddress": "0x8103b0a8a00be2ddc778e6e7eaa21791cd364625",
      "function": "createSubscription()",
      "arguments": [],
      "transaction": {
        "from": "0x5547010288a6a4bdfaecce0d9d1ec929faa34911",
        "to": "0x8103b0a8a00be2ddc778e6e7eaa21791cd364625",
        "gas": "0x1558c",
        "value": "0x0",
        "input": "0xa21a23e4",
        "nonce": "0x0",
        "chainId": "0xaa36a7"
      },
      "additionalContracts": [],
      "isFixedGasLimit": false
    },
    {
      "hash": "0xc53da38621530694e26c08b5025cd5babf7e26efb296d2684e27cb50b293a0a1",
      "transactionType": "CALL",
      "contractName": null,
      "contractAddress": "0x779877a7b0d9e8603169ddbd7836e478b4624789",
      "function": "transferAndCall(address,uint256,bytes)",
      "arguments": [
        "0x8103B0A8A00be2DDC778e6e7eaa21791Cd364625",
        "3000000000000000000",
        "0x000000000000000000000000000000000000000000000000000000000000306e"
      ],
      "transaction": {
        "from": "0x5547010288a6a4bdfaecce0d9d1ec929faa34911",
        "to": "0x779877a7b0d9e8603169ddbd7836e478b4624789",
        "gas": "0x1b43f",
        "value": "0x0",
        "input": "0x4000aea00000000000000000000000008103b0a8a00be2ddc778e6e7eaa21791cd36462500000000000000000000000000000000000000000000000029a2241af62c000000000000000000000000000000000000000000000000000000000000000000600000000000000000000000000000000000000000000000000000000000000020000000000000000000000000000000000000000000000000000000000000306e",
        "nonce": "0x1",
        "chainId": "0xaa36a7"
      },
      "additionalContracts": [],
      "isFixedGasLimit": false
    },
    {
      "hash": "0x521a1cc466a4fdedc139ce2be00bd6b912b45b46b47d4c5b829e32bc1210ffe5",
      "transactionType": "CREATE",
      "contractName": "Raffle",
      "contractAddress": "0x84299bc9c3f2e746b1f8225fcfe5f0677a2c2aab",
      "function": null,
      "arguments": [
        "10000000000000000",
        "30",
        "0x8103B0A8A00be2DDC778e6e7eaa21791Cd364625",
        "0x787d74caea10b2b357790d5b5247c2f63d1d91572a9846f780606e4d953677ae",
        "12398",
        "500000"
      ],
      "transaction": {
        "from": "0x5547010288a6a4bdfaecce0d9d1ec929faa34911",
        "gas": "0x14910b",
        "value": "0x0",
        "input": "0x610160604052348015610010575f5ffd5b5060405161149b38038061149b8339818101604052810190610032919061025d565b838073ffffffffffffffffffffffffffffffffffffffff1660808173ffffffffffffffffffffffffffffffffffffffff1681525050508560a081815250508460c081815250508373ffffffffffffffffffffffffffffffffffffffff1660e08173ffffffffffffffffffffffffffffffffffffffff16815250508261010081815250508167ffffffffffffffff166101208167ffffffffffffffff16815250508063ffffffff166101408163ffffffff1681525050426001819055505f600260146101000a81548160ff02191690836001811115610113576101126102e6565b5b0217905550505050505050610313565b5f5ffd5b5f819050919050565b61013981610127565b8114610143575f5ffd5b50565b5f8151905061015481610130565b92915050565b5f73ffffffffffffffffffffffffffffffffffffffff82169050919050565b5f6101838261015a565b9050919050565b61019381610179565b811461019d575f5ffd5b50565b5f815190506101ae8161018a565b92915050565b5f819050919050565b6101c6816101b4565b81146101d0575f5ffd5b50565b5f815190506101e1816101bd565b92915050565b5f67ffffffffffffffff82169050919050565b610203816101e7565b811461020d575f5ffd5b50565b5f8151905061021e816101fa565b92915050565b5f63ffffffff82169050919050565b61023c81610224565b8114610246575f5ffd5b50565b5f8151905061025781610233565b92915050565b5f5f5f5f5f5f60c0878903121561027757610276610123565b5b5f61028489828a01610146565b965050602061029589828a01610146565b95505060406102a689828a016101a0565b94505060606102b789828a016101d3565b93505060806102c889828a01610210565b92505060a06102d989828a01610249565b9150509295509295509295565b7f4e487b71000000000000000000000000000000000000000000000000000000005f52602160045260245ffd5b60805160a05160c05160e0516101005161012051610140516111296103725f395f61061601525f6105f301525f6105d201525f61059601525f61040701525f818161019d015261030501525f81816101d9015261022d01526111295ff3fe60806040526004361061006f575f3560e01c80632cfcc5391161004d5780632cfcc539146100ef5780635e6c102e146100f95780636c7c8f1714610136578063e55ae4e81461015e5761006f565b806309bc33a714610073578063115cbaf51461009d5780631fe543e3146100c7575b5f5ffd5b34801561007e575f5ffd5b5061008761019a565b60405161009491906109bc565b60405180910390f35b3480156100a8575f5ffd5b506100b16101c1565b6040516100be9190610a48565b60405180910390f35b3480156100d2575f5ffd5b506100ed60048036038101906100e89190610bec565b6101d7565b005b6100f7610297565b005b348015610104575f5ffd5b5061011f600480360381019061011a9190610cf6565b610401565b60405161012d929190610db7565b60405180910390f35b348015610141575f5ffd5b5061015c60048036038101906101579190610cf6565b6104e3565b005b348015610169575f5ffd5b50610184600480360381019061017f9190610de5565b61069c565b6040516101919190610e4f565b60405180910390f35b5f7f0000000000000000000000000000000000000000000000000000000000000000905090565b5f600260149054906101000a900460ff16905090565b7f000000000000000000000000000000000000000000000000000000000000000073ffffffffffffffffffffffffffffffffffffffff163373ffffffffffffffffffffffffffffffffffffffff161461028957337f00000000000000000000000000000000000000000000000000000000000000006040517f1cf993f4000000000000000000000000000000000000000000000000000000008152600401610280929190610e68565b60405180910390fd5b61029382826106df565b5050565b5f60018111156102aa576102a96109d5565b5b600260149054906101000a900460ff1660018111156102cc576102cb6109d5565b5b14610303576040517fd24a271400000000000000000000000000000000000000000000000000000000815260040160405180910390fd5b7f000000000000000000000000000000000000000000000000000000000000000034101561035d576040517f246b904d00000000000000000000000000000000000000000000000000000000815260040160405180910390fd5b5f33908060018154018082558091505060019003905f5260205f20015f9091909190916101000a81548173ffffffffffffffffffffffffffffffffffffffff021916908373ffffffffffffffffffffffffffffffffffffffff1602179055503373ffffffffffffffffffffffffffffffffffffffff167f819fbd717c9d0b421352c5116a644ca68ba176960c33f406f08d98a27370ca2760405160405180910390a2565b5f60605f7f0000000000000000000000000000000000000000000000000000000000000000600154426104349190610ebc565b101590505f5f600181111561044c5761044b6109d5565b5b600260149054906101000a900460ff16600181111561046e5761046d6109d5565b5b1490505f5f5f805490501190505f5f4711905083801561048b5750825b80156104945750815b801561049d5750805b9550856040518060400160405280600381526020017f30783000000000000000000000000000000000000000000000000000000000008152509550955050505050915091565b5f6104fb60405180602001604052805f815250610401565b5090508061056957475f80549050600260149054906101000a900460ff16600181111561052b5761052a6109d5565b5b6040517f3a8d608600000000000000000000000000000000000000000000000000000000815260040161056093929190610eef565b60405180910390fd5b6001600260146101000a81548160ff0219169083600181111561058f5761058e6109d5565b5b02179055507f000000000000000000000000000000000000000000000000000000000000000073ffffffffffffffffffffffffffffffffffffffff16635d3b1d307f00000000000000000000000000000000000000000000000000000000000000007f000000000000000000000000000000000000000000000000000000000000000060037f000000000000000000000000000000000000000000000000000000000000000060016040518663ffffffff1660e01b8152600401610657959493929190610f98565b6020604051808303815f875af1158015610673573d5f5f3e3d5ffd5b505050506040513d601f19601f820116820180604052508101906106979190610ffd565b505050565b5f5f82815481106106b0576106af611028565b5b905f5260205f20015f9054906101000a900473ffffffffffffffffffffffffffffffffffffffff169050919050565b5f5f80549050825f815181106106f8576106f7611028565b5b602002602001015161070a9190611082565b90505f5f82815481106107205761071f611028565b5b905f5260205f20015f9054906101000a900473ffffffffffffffffffffffffffffffffffffffff1690508060025f6101000a81548173ffffffffffffffffffffffffffffffffffffffff021916908373ffffffffffffffffffffffffffffffffffffffff1602179055505f600260146101000a81548160ff021916908360018111156107af576107ae6109d5565b5b02179055505f67ffffffffffffffff8111156107ce576107cd610ab0565b5b6040519080825280602002602001820160405280156107fc5781602001602082028036833780820191505090505b505f9080519060200190610811929190610902565b50426001819055505f8173ffffffffffffffffffffffffffffffffffffffff164760405161083e906110df565b5f6040518083038185875af1925050503d805f8114610878576040519150601f19603f3d011682016040523d82523d5f602084013e61087d565b606091505b50509050806108b8576040517fa1d04b3900000000000000000000000000000000000000000000000000000000815260040160405180910390fd5b8173ffffffffffffffffffffffffffffffffffffffff167f5b690ec4a06fe979403046eaeea5b3ce38524683c3001f662c8b5a829632f7df60405160405180910390a25050505050565b828054828255905f5260205f20908101928215610978579160200282015b82811115610977578251825f6101000a81548173ffffffffffffffffffffffffffffffffffffffff021916908373ffffffffffffffffffffffffffffffffffffffff16021790555091602001919060010190610920565b5b5090506109859190610989565b5090565b5b808211156109a0575f815f90555060010161098a565b5090565b5f819050919050565b6109b6816109a4565b82525050565b5f6020820190506109cf5f8301846109ad565b92915050565b7f4e487b71000000000000000000000000000000000000000000000000000000005f52602160045260245ffd5b60028110610a1357610a126109d5565b5b50565b5f819050610a2382610a02565b919050565b5f610a3282610a16565b9050919050565b610a4281610a28565b82525050565b5f602082019050610a5b5f830184610a39565b92915050565b5f604051905090565b5f5ffd5b5f5ffd5b610a7b816109a4565b8114610a85575f5ffd5b50565b5f81359050610a9681610a72565b92915050565b5f5ffd5b5f601f19601f8301169050919050565b7f4e487b71000000000000000000000000000000000000000000000000000000005f52604160045260245ffd5b610ae682610aa0565b810181811067ffffffffffffffff82111715610b0557610b04610ab0565b5b80604052505050565b5f610b17610a61565b9050610b238282610add565b919050565b5f67ffffffffffffffff821115610b4257610b41610ab0565b5b602082029050602081019050919050565b5f5ffd5b5f610b69610b6484610b28565b610b0e565b90508083825260208201905060208402830185811115610b8c57610b8b610b53565b5b835b81811015610bb55780610ba18882610a88565b845260208401935050602081019050610b8e565b5050509392505050565b5f82601f830112610bd357610bd2610a9c565b5b8135610be3848260208601610b57565b91505092915050565b5f5f60408385031215610c0257610c01610a6a565b5b5f610c0f85828601610a88565b925050602083013567ffffffffffffffff811115610c3057610c2f610a6e565b5b610c3c85828601610bbf565b9150509250929050565b5f5ffd5b5f67ffffffffffffffff821115610c6457610c63610ab0565b5b610c6d82610aa0565b9050602081019050919050565b828183375f83830152505050565b5f610c9a610c9584610c4a565b610b0e565b905082815260208101848484011115610cb657610cb5610c46565b5b610cc1848285610c7a565b509392505050565b5f82601f830112610cdd57610cdc610a9c565b5b8135610ced848260208601610c88565b91505092915050565b5f60208284031215610d0b57610d0a610a6a565b5b5f82013567ffffffffffffffff811115610d2857610d27610a6e565b5b610d3484828501610cc9565b91505092915050565b5f8115159050919050565b610d5181610d3d565b82525050565b5f81519050919050565b5f82825260208201905092915050565b8281835e5f83830152505050565b5f610d8982610d57565b610d938185610d61565b9350610da3818560208601610d71565b610dac81610aa0565b840191505092915050565b5f604082019050610dca5f830185610d48565b8181036020830152610ddc8184610d7f565b90509392505050565b5f60208284031215610dfa57610df9610a6a565b5b5f610e0784828501610a88565b91505092915050565b5f73ffffffffffffffffffffffffffffffffffffffff82169050919050565b5f610e3982610e10565b9050919050565b610e4981610e2f565b82525050565b5f602082019050610e625f830184610e40565b92915050565b5f604082019050610e7b5f830185610e40565b610e886020830184610e40565b9392505050565b7f4e487b71000000000000000000000000000000000000000000000000000000005f52601160045260245ffd5b5f610ec6826109a4565b9150610ed1836109a4565b9250828203905081811115610ee957610ee8610e8f565b5b92915050565b5f606082019050610f025f8301866109ad565b610f0f60208301856109ad565b610f1c60408301846109ad565b949350505050565b5f819050919050565b610f3681610f24565b82525050565b5f67ffffffffffffffff82169050919050565b610f5881610f3c565b82525050565b5f61ffff82169050919050565b610f7481610f5e565b82525050565b5f63ffffffff82169050919050565b610f9281610f7a565b82525050565b5f60a082019050610fab5f830188610f2d565b610fb86020830187610f4f565b610fc56040830186610f6b565b610fd26060830185610f89565b610fdf6080830184610f89565b9695505050505050565b5f81519050610ff781610a72565b92915050565b5f6020828403121561101257611011610a6a565b5b5f61101f84828501610fe9565b91505092915050565b7f4e487b71000000000000000000000000000000000000000000000000000000005f52603260045260245ffd5b7f4e487b71000000000000000000000000000000000000000000000000000000005f52601260045260245ffd5b5f61108c826109a4565b9150611097836109a4565b9250826110a7576110a6611055565b5b828206905092915050565b5f81905092915050565b50565b5f6110ca5f836110b2565b91506110d5826110bc565b5f82019050919050565b5f6110e9826110bf565b915081905091905056fea26469706673582212209cad8d8091c051c4b8b863674ae58dd9d84bce450630d266ebae24e61f1a8ff064736f6c634300081c0033000000000000000000000000000000000000000000000000002386f26fc10000000000000000000000000000000000000000000000000000000000000000001e0000000000000000000000008103b0a8a00be2ddc778e6e7eaa21791cd364625787d74caea10b2b357790d5b5247c2f63d1d91572a9846f780606e4d953677ae000000000000000000000000000000000000000000000000000000000000306e000000000000000000000000000000000000000000000000000000000007a120",
        "nonce": "0x2",
        "chainId": "0xaa36a7"
      },
      "additionalContracts": [],
      "isFixedGasLimit": false
    },
    {
      "hash": "0x9123d0b9e59ff9bb922082fd5b2e0a43f7a10b861e076068637122635ca45d41",
      "transactionType": "CALL",
      "contractName": null,
      "contractAddress": "0x8103b0a8a00be2ddc778e6e7eaa21791cd364625",
      "function": "addConsumer(uint64,address)",
      "arguments": [
        "12398",
        "0x84299bC9c3f2e746b1F8225FcFe5f0677A2c2AAB"
      ],
      "transaction": {
        "from": "0x5547010288a6a4bdfaecce0d9d1ec929faa34911",
        "to": "0x8103b0a8a00be2ddc778e6e7eaa21791cd364625",
        "gas": "0x21eb0",
        "value": "0x0",
        "input": "0x7341c10c000000000000000000000000000000000000000000000000000000000000306e00000000000000000000000084299bc9c3f2e746b1f8225fcfe5f0677a2c2aab",
        "nonce": "0x3",
        "chainId": "0xaa36a7"
      },
      "additionalContracts": [],
      "isFixedGasLimit": false
    }
  ],
  "receipts": [
    {
      "status": "0x1",
      "cumulativeGasUsed": "0x1c23883",
      "logs": [
        {
          "address": "0x8103b0a8a00be2ddc778e6e7eaa21791cd364625",
          "topics": [
            "0x464722b4166576d3dcbba877b999bc35cf911f4eaf434b7eba68fa113951d0bf",
            "0x000000000000000000000000000000000000000000000000000000000000306e"
          ],
          "data": "0x0000000000000000000000005547010288a6a4bdfaecce0d9d1ec929faa34911",
          "blockHash": "0xa99906b1437b8169b437caa3494101bb5755630f89aeaf47bc46af2d78cc94d4",
          "blockNumber": "0x80889e",
          "blockTimestamp": "0x6836ca18",
          "transactionHash": "0xa8c140205b08a6b0fa30c0b531e13190f4577bbc8b868f2aded7360ac8be87b4",
          "transactionIndex": "0xa3",
          "logIndex": "0x251",
          "removed": false
        }
      ],
      "logsBloom": "0x0000000000000000000001000000000000000000000000000000000000000000010000000000000000000000000000000000000000000000000000000100000000000000000000400000000000000000000000000000000000000000000000000000000000000000000000000000000000000000000000000000000000000200000000000c000020000000000000000000000000000000000000000000000000000000000000000000000000000000000000000000000000000000000000000000000000000000200000000000000000000000000000000000000000000000000000000000000000000000000000000000000000000000000000000000000000",
      "type": "0x2",
      "transactionHash": "0xa8c140205b08a6b0fa30c0b531e13190f4577bbc8b868f2aded7360ac8be87b4",
      "transactionIndex": "0xa3",
      "blockHash": "0xa99906b1437b8169b437caa3494101bb5755630f89aeaf47bc46af2d78cc94d4",
      "blockNumber": "0x80889e",
      "gasUsed": "0xe98a",
      "effectiveGasPrice": "0xd23e08",
      "from": "0x5547010288a6a4bdfaecce0d9d1ec929faa34911",
      "to": "0x8103b0a8a00be2ddc778e6e7eaa21791cd364625",
      "contractAddress": null
    },
    {
      "status": "0x1",
      "cumulativeGasUsed": "0x1c362cd",
      "logs": [
        {
          "address": "0x779877a7b0d9e8603169ddbd7836e478b4624789",
          "topics": [
            "0xddf252ad1be2c89b69c2b068fc378daa952ba7f163c4a11628f55a4df523b3ef",
            "0x0000000000000000000000005547010288a6a4bdfaecce0d9d1ec929faa34911",
            "0x0000000000000000000000008103b0a8a00be2ddc778e6e7eaa21791cd364625"
          ],
          "data": "0x00000000000000000000000000000000000000000000000029a2241af62c0000",
          "blockHash": "0xa99906b1437b8169b437caa3494101bb5755630f89aeaf47bc46af2d78cc94d4",
          "blockNumber": "0x80889e",
          "blockTimestamp": "0x6836ca18",
          "transactionHash": "0xc53da38621530694e26c08b5025cd5babf7e26efb296d2684e27cb50b293a0a1",
          "transactionIndex": "0xa4",
          "logIndex": "0x252",
          "removed": false
        },
        {
          "address": "0x779877a7b0d9e8603169ddbd7836e478b4624789",
          "topics": [
            "0xe19260aff97b920c7df27010903aeb9c8d2be5d310a2c67824cf3f15396e4c16",
            "0x0000000000000000000000005547010288a6a4bdfaecce0d9d1ec929faa34911",
            "0x0000000000000000000000008103b0a8a00be2ddc778e6e7eaa21791cd364625"
          ],
          "data": "0x00000000000000000000000000000000000000000000000029a2241af62c000000000000000000000000000000000000000000000000000000000000000000400000000000000000000000000000000000000000000000000000000000000020000000000000000000000000000000000000000000000000000000000000306e",
          "blockHash": "0xa99906b1437b8169b437caa3494101bb5755630f89aeaf47bc46af2d78cc94d4",
          "blockNumber": "0x80889e",
          "blockTimestamp": "0x6836ca18",
          "transactionHash": "0xc53da38621530694e26c08b5025cd5babf7e26efb296d2684e27cb50b293a0a1",
          "transactionIndex": "0xa4",
          "logIndex": "0x253",
          "removed": false
        },
        {
          "address": "0x8103b0a8a00be2ddc778e6e7eaa21791cd364625",
          "topics": [
            "0xd39ec07f4e209f627a4c427971473820dc129761ba28de8906bd56f57101d4f8",
            "0x000000000000000000000000000000000000000000000000000000000000306e"
          ],
          "data": "0x000000000000000000000000000000000000000000000000000000000000000000000000000000000000000000000000000000000000000029a2241af62c0000",
          "blockHash": "0xa99906b1437b8169b437caa3494101bb5755630f89aeaf47bc46af2d78cc94d4",
          "blockNumber": "0x80889e",
          "blockTimestamp": "0x6836ca18",
          "transactionHash": "0xc53da38621530694e26c08b5025cd5babf7e26efb296d2684e27cb50b293a0a1",
          "transactionIndex": "0xa4",
          "logIndex": "0x254",
          "removed": false
        }
      ],
      "logsBloom": "0x0000001400000000000000000000000000000000000000020000000002008000000000000000800000000000000000000000000000000000000000000100000000000000000000400000000800000000000000000000000000002000000000000000000000000000000000000000000000000000400000000000001000000200000000000c000020000000000000800010000020000000000000000000000000000000000000000000000000000000000000000000000000000400010000000000000002000000000000000000000000000000000000000100000000000000000000000000000000000004000000000000000000000000000000000000000000",
      "type": "0x2",
      "transactionHash": "0xc53da38621530694e26c08b5025cd5babf7e26efb296d2684e27cb50b293a0a1",
      "transactionIndex": "0xa4",
      "blockHash": "0xa99906b1437b8169b437caa3494101bb5755630f89aeaf47bc46af2d78cc94d4",
      "blockNumber": "0x80889e",
      "gasUsed": "0x12a4a",
      "effectiveGasPrice": "0xd23e08",
      "from": "0x5547010288a6a4bdfaecce0d9d1ec929faa34911",
      "to": "0x779877a7b0d9e8603169ddbd7836e478b4624789",
      "contractAddress": null
    },
    {
      "status": "0x1",
      "cumulativeGasUsed": "0x1d334d6",
      "logs": [],
      "logsBloom": "0x00000000000000000000000000000000000000000000000000000000000000000000000000000000000000000000000000000000000000000000000000000000000000000000000000000000000000000000000000000000000000000000000000000000000000000000000000000000000000000000000000000000000000000000000000000000000000000000000000000000000000000000000000000000000000000000000000000000000000000000000000000000000000000000000000000000000000000000000000000000000000000000000000000000000000000000000000000000000000000000000000000000000000000000000000000000",
      "type": "0x2",
      "transactionHash": "0x521a1cc466a4fdedc139ce2be00bd6b912b45b46b47d4c5b829e32bc1210ffe5",
      "transactionIndex": "0xa5",
      "blockHash": "0xa99906b1437b8169b437caa3494101bb5755630f89aeaf47bc46af2d78cc94d4",
      "blockNumber": "0x80889e",
      "gasUsed": "0xfd209",
      "effectiveGasPrice": "0xd23e08",
      "from": "0x5547010288a6a4bdfaecce0d9d1ec929faa34911",
      "to": null,
      "contractAddress": "0x84299bc9c3f2e746b1f8225fcfe5f0677a2c2aab"
    },
    {
      "status": "0x1",
      "cumulativeGasUsed": "0x1d4a7e8",
      "logs": [
        {
          "address": "0x8103b0a8a00be2ddc778e6e7eaa21791cd364625",
          "topics": [
            "0x43dc749a04ac8fb825cbd514f7c0e13f13bc6f2ee66043b76629d51776cff8e0",
            "0x000000000000000000000000000000000000000000000000000000000000306e"
          ],
          "data": "0x00000000000000000000000084299bc9c3f2e746b1f8225fcfe5f0677a2c2aab",
          "blockHash": "0xa99906b1437b8169b437caa3494101bb5755630f89aeaf47bc46af2d78cc94d4",
          "blockNumber": "0x80889e",
          "blockTimestamp": "0x6836ca18",
          "transactionHash": "0x9123d0b9e59ff9bb922082fd5b2e0a43f7a10b861e076068637122635ca45d41",
          "transactionIndex": "0xa6",
          "logIndex": "0x255",
          "removed": false
        }
      ],
      "logsBloom": "0x0000000000000000000000000000000000000000000000000000000000000000000000000000000000000000000000000000000000000000000000000100000000000000000000400000000000000000000000000000000000000000000000000000000000008000000000000000000000000000000000000000000000000200000000000c000020000000000000000000000000000000000000000000000000000000000000000000000080000000000000000000000000000000000000000000000000000000000000000000000000000000000000000000020000000000000000000000000000000000000000000000000000000000000000000000000000",
      "type": "0x2",
      "transactionHash": "0x9123d0b9e59ff9bb922082fd5b2e0a43f7a10b861e076068637122635ca45d41",
      "transactionIndex": "0xa6",
      "blockHash": "0xa99906b1437b8169b437caa3494101bb5755630f89aeaf47bc46af2d78cc94d4",
      "blockNumber": "0x80889e",
      "gasUsed": "0x17312",
      "effectiveGasPrice": "0xd23e08",
      "from": "0x5547010288a6a4bdfaecce0d9d1ec929faa34911",
      "to": "0x8103b0a8a00be2ddc778e6e7eaa21791cd364625",
      "contractAddress": null
    }
  ],
  "libraries": [],
  "pending": [],
  "returns": {
    "0": {
      "internal_type": "contract Raffle",
      "value": "0x84299bC9c3f2e746b1F8225FcFe5f0677A2c2AAB"
    },
    "1": {
      "internal_type": "contract HelperConfig",
      "value": "0xC7f2Cf4845C6db0e1a1e91ED41Bcd0FcC1b0E141"
    }
  },
  "timestamp": 1748421144,
  "chain": 11155111,
  "commit": "61ac9b0"
}