{
  "transactions": [
    {
      "hash": "0xfc4130669a49f2d1e064c8e6296a218d217fb36678f3970ca05ef94e46411ae6",
      "transactionType": "CALL",
      "contractName": null,
      "contractAddress": "0x8103b0a8a00be2ddc778e6e7eaa21791cd364625",
      "function": "createSubscription()",
      "arguments": [],
      "transaction": {
        "from": "0x5547010288a6a4bdfaecce0d9d1ec929faa34911",
        "to": "0x8103b0a8a00be2ddc778e6e7eaa21791cd364625",
        "gas": "0x1558c",
        "value": "0x0",
        "input": "0xa21a23e4",
        "nonce": "0x1a",
        "chainId": "0xaa36a7"
      },
      "additionalContracts": [],
      "isFixedGasLimit": false
    },
    {
      "hash": "0x497c8cc86b06308a10de103a4b8e4a7b9d8dafc3ae7bd40b43f69559d70b1a17",
      "transactionType": "CALL",
      "contractName": "LinkToken",
      "contractAddress": "0x779877a7b0d9e8603169ddbd7836e478b4624789",
      "function": "transferAndCall(address,uint256,bytes)",
      "arguments": [
        "0x8103B0A8A00be2DDC778e6e7eaa21791Cd364625",
        "3000000000000000000",
        "0x0000000000000000000000000000000000000000000000000000000000003072"
      ],
      "transaction": {
        "from": "0x5547010288a6a4bdfaecce0d9d1ec929faa34911",
        "to": "0x779877a7b0d9e8603169ddbd7836e478b4624789",
        "gas": "0x1b43f",
        "value": "0x0",
        "input": "0x4000aea00000000000000000000000008103b0a8a00be2ddc778e6e7eaa21791cd36462500000000000000000000000000000000000000000000000029a2241af62c0000000000000000000000000000000000000000000000000000000000000000006000000000000000000000000000000000000000000000000000000000000000200000000000000000000000000000000000000000000000000000000000003072",
        "nonce": "0x1b",
        "chainId": "0xaa36a7"
      },
      "additionalContracts": [],
      "isFixedGasLimit": false
    },
    {
      "hash": "0xaa7f52a7087d5bb9c91056545098e3002a02bf99dc80a2f72405a79490c56ca4",
      "transactionType": "CREATE",
      "contractName": "Raffle",
      "contractAddress": "0x32507c0ea0fec43ba688bb322f3fc96335a26f36",
      "function": null,
      "arguments": [
        "10000000000000000",
        "30",
        "0x8103B0A8A00be2DDC778e6e7eaa21791Cd364625",
        "0x474e34a077df58807dbe9c96d3c009b23b3c6d0cce433e59bbf5b34f823bc56c",
        "12402",
        "500000"
      ],
      "transaction": {
        "from": "0x5547010288a6a4bdfaecce0d9d1ec929faa34911",
        "gas": "0x153d87",
        "value": "0x0",
        "input": "0x610160604052348015610010575f5ffd5b506040516115383803806115388339818101604052810190610032919061025d565b838073ffffffffffffffffffffffffffffffffffffffff1660808173ffffffffffffffffffffffffffffffffffffffff1681525050508560a081815250508460c081815250508373ffffffffffffffffffffffffffffffffffffffff1660e08173ffffffffffffffffffffffffffffffffffffffff16815250508261010081815250508167ffffffffffffffff166101208167ffffffffffffffff16815250508063ffffffff166101408163ffffffff1681525050426001819055505f600260146101000a81548160ff02191690836001811115610113576101126102e6565b5b0217905550505050505050610313565b5f5ffd5b5f819050919050565b61013981610127565b8114610143575f5ffd5b50565b5f8151905061015481610130565b92915050565b5f73ffffffffffffffffffffffffffffffffffffffff82169050919050565b5f6101838261015a565b9050919050565b61019381610179565b811461019d575f5ffd5b50565b5f815190506101ae8161018a565b92915050565b5f819050919050565b6101c6816101b4565b81146101d0575f5ffd5b50565b5f815190506101e1816101bd565b92915050565b5f67ffffffffffffffff82169050919050565b610203816101e7565b811461020d575f5ffd5b50565b5f8151905061021e816101fa565b92915050565b5f63ffffffff82169050919050565b61023c81610224565b8114610246575f5ffd5b50565b5f8151905061025781610233565b92915050565b5f5f5f5f5f5f60c0878903121561027757610276610123565b5b5f61028489828a01610146565b965050602061029589828a01610146565b95505060406102a689828a016101a0565b94505060606102b789828a016101d3565b93505060806102c889828a01610210565b92505060a06102d989828a01610249565b9150509295509295509295565b7f4e487b71000000000000000000000000000000000000000000000000000000005f52602160045260245ffd5b60805160a05160c05160e0516101005161012051610140516111c66103725f395f6106a801525f61068501525f61066401525f61062801525f61049901525f8181610207015261036f01525f8181610243015261029701526111c65ff3fe608060405260043610610085575f3560e01c8063473f1ddc11610058578063473f1ddc1461010f5780635e6c102e146101395780636c7c8f1714610176578063cd61386d1461019e578063e55ae4e8146101c857610085565b806309bc33a714610089578063115cbaf5146100b35780631fe543e3146100dd5780632cfcc53914610105575b5f5ffd5b348015610094575f5ffd5b5061009d610204565b6040516100aa9190610a59565b60405180910390f35b3480156100be575f5ffd5b506100c761022b565b6040516100d49190610ae5565b60405180910390f35b3480156100e8575f5ffd5b5061010360048036038101906100fe9190610c89565b610241565b005b61010d610301565b005b34801561011a575f5ffd5b5061012361046b565b6040516101309190610d22565b60405180910390f35b348015610144575f5ffd5b5061015f600480360381019061015a9190610deb565b610493565b60405161016d929190610eac565b60405180910390f35b348015610181575f5ffd5b5061019c60048036038101906101979190610deb565b610575565b005b3480156101a9575f5ffd5b506101b261072e565b6040516101bf9190610a59565b60405180910390f35b3480156101d3575f5ffd5b506101ee60048036038101906101e99190610eda565b610739565b6040516101fb9190610d22565b60405180910390f35b5f7f0000000000000000000000000000000000000000000000000000000000000000905090565b5f600260149054906101000a900460ff16905090565b7f000000000000000000000000000000000000000000000000000000000000000073ffffffffffffffffffffffffffffffffffffffff163373ffffffffffffffffffffffffffffffffffffffff16146102f357337f00000000000000000000000000000000000000000000000000000000000000006040517f1cf993f40000000000000000000000000000000000000000000000000000000081526004016102ea929190610f05565b60405180910390fd5b6102fd828261077c565b5050565b5f600181111561031457610313610a72565b5b600260149054906101000a900460ff16600181111561033657610335610a72565b5b1461036d576040517fd24a271400000000000000000000000000000000000000000000000000000000815260040160405180910390fd5b7f00000000000000000000000000000000000000000000000000000000000000003410156103c7576040517f246b904d00000000000000000000000000000000000000000000000000000000815260040160405180910390fd5b5f33908060018154018082558091505060019003905f5260205f20015f9091909190916101000a81548173ffffffffffffffffffffffffffffffffffffffff021916908373ffffffffffffffffffffffffffffffffffffffff1602179055503373ffffffffffffffffffffffffffffffffffffffff167f819fbd717c9d0b421352c5116a644ca68ba176960c33f406f08d98a27370ca2760405160405180910390a2565b5f60025f9054906101000a900473ffffffffffffffffffffffffffffffffffffffff16905090565b5f60605f7f0000000000000000000000000000000000000000000000000000000000000000600154426104c69190610f59565b101590505f5f60018111156104de576104dd610a72565b5b600260149054906101000a900460ff166001811115610500576104ff610a72565b5b1490505f5f5f805490501190505f5f4711905083801561051d5750825b80156105265750815b801561052f5750805b9550856040518060400160405280600381526020017f30783000000000000000000000000000000000000000000000000000000000008152509550955050505050915091565b5f61058d60405180602001604052805f815250610493565b509050806105fb57475f80549050600260149054906101000a900460ff1660018111156105bd576105bc610a72565b5b6040517f3a8d60860000000000000000000000000000000000000000000000000000000081526004016105f293929190610f8c565b60405180910390fd5b6001600260146101000a81548160ff0219169083600181111561062157610620610a72565b5b02179055507f000000000000000000000000000000000000000000000000000000000000000073ffffffffffffffffffffffffffffffffffffffff16635d3b1d307f00000000000000000000000000000000000000000000000000000000000000007f000000000000000000000000000000000000000000000000000000000000000060037f000000000000000000000000000000000000000000000000000000000000000060016040518663ffffffff1660e01b81526004016106e9959493929190611035565b6020604051808303815f875af1158015610705573d5f5f3e3d5ffd5b505050506040513d601f19601f82011682018060405250810190610729919061109a565b505050565b5f5f80549050905090565b5f5f828154811061074d5761074c6110c5565b5b905f5260205f20015f9054906101000a900473ffffffffffffffffffffffffffffffffffffffff169050919050565b5f5f80549050825f81518110610795576107946110c5565b5b60200260200101516107a7919061111f565b90505f5f82815481106107bd576107bc6110c5565b5b905f5260205f20015f9054906101000a900473ffffffffffffffffffffffffffffffffffffffff1690508060025f6101000a81548173ffffffffffffffffffffffffffffffffffffffff021916908373ffffffffffffffffffffffffffffffffffffffff1602179055505f600260146101000a81548160ff0219169083600181111561084c5761084b610a72565b5b02179055505f67ffffffffffffffff81111561086b5761086a610b4d565b5b6040519080825280602002602001820160405280156108995781602001602082028036833780820191505090505b505f90805190602001906108ae92919061099f565b50426001819055505f8173ffffffffffffffffffffffffffffffffffffffff16476040516108db9061117c565b5f6040518083038185875af1925050503d805f8114610915576040519150601f19603f3d011682016040523d82523d5f602084013e61091a565b606091505b5050905080610955576040517fa1d04b3900000000000000000000000000000000000000000000000000000000815260040160405180910390fd5b8173ffffffffffffffffffffffffffffffffffffffff167f5b690ec4a06fe979403046eaeea5b3ce38524683c3001f662c8b5a829632f7df60405160405180910390a25050505050565b828054828255905f5260205f20908101928215610a15579160200282015b82811115610a14578251825f6101000a81548173ffffffffffffffffffffffffffffffffffffffff021916908373ffffffffffffffffffffffffffffffffffffffff160217905550916020019190600101906109bd565b5b509050610a229190610a26565b5090565b5b80821115610a3d575f815f905550600101610a27565b5090565b5f819050919050565b610a5381610a41565b82525050565b5f602082019050610a6c5f830184610a4a565b92915050565b7f4e487b71000000000000000000000000000000000000000000000000000000005f52602160045260245ffd5b60028110610ab057610aaf610a72565b5b50565b5f819050610ac082610a9f565b919050565b5f610acf82610ab3565b9050919050565b610adf81610ac5565b82525050565b5f602082019050610af85f830184610ad6565b92915050565b5f604051905090565b5f5ffd5b5f5ffd5b610b1881610a41565b8114610b22575f5ffd5b50565b5f81359050610b3381610b0f565b92915050565b5f5ffd5b5f601f19601f8301169050919050565b7f4e487b71000000000000000000000000000000000000000000000000000000005f52604160045260245ffd5b610b8382610b3d565b810181811067ffffffffffffffff82111715610ba257610ba1610b4d565b5b80604052505050565b5f610bb4610afe565b9050610bc08282610b7a565b919050565b5f67ffffffffffffffff821115610bdf57610bde610b4d565b5b602082029050602081019050919050565b5f5ffd5b5f610c06610c0184610bc5565b610bab565b90508083825260208201905060208402830185811115610c2957610c28610bf0565b5b835b81811015610c525780610c3e8882610b25565b845260208401935050602081019050610c2b565b5050509392505050565b5f82601f830112610c7057610c6f610b39565b5b8135610c80848260208601610bf4565b91505092915050565b5f5f60408385031215610c9f57610c9e610b07565b5b5f610cac85828601610b25565b925050602083013567ffffffffffffffff811115610ccd57610ccc610b0b565b5b610cd985828601610c5c565b9150509250929050565b5f73ffffffffffffffffffffffffffffffffffffffff82169050919050565b5f610d0c82610ce3565b9050919050565b610d1c81610d02565b82525050565b5f602082019050610d355f830184610d13565b92915050565b5f5ffd5b5f67ffffffffffffffff821115610d5957610d58610b4d565b5b610d6282610b3d565b9050602081019050919050565b828183375f83830152505050565b5f610d8f610d8a84610d3f565b610bab565b905082815260208101848484011115610dab57610daa610d3b565b5b610db6848285610d6f565b509392505050565b5f82601f830112610dd257610dd1610b39565b5b8135610de2848260208601610d7d565b91505092915050565b5f60208284031215610e0057610dff610b07565b5b5f82013567ffffffffffffffff811115610e1d57610e1c610b0b565b5b610e2984828501610dbe565b91505092915050565b5f8115159050919050565b610e4681610e32565b82525050565b5f81519050919050565b5f82825260208201905092915050565b8281835e5f83830152505050565b5f610e7e82610e4c565b610e888185610e56565b9350610e98818560208601610e66565b610ea181610b3d565b840191505092915050565b5f604082019050610ebf5f830185610e3d565b8181036020830152610ed18184610e74565b90509392505050565b5f60208284031215610eef57610eee610b07565b5b5f610efc84828501610b25565b91505092915050565b5f604082019050610f185f830185610d13565b610f256020830184610d13565b9392505050565b7f4e487b71000000000000000000000000000000000000000000000000000000005f52601160045260245ffd5b5f610f6382610a41565b9150610f6e83610a41565b9250828203905081811115610f8657610f85610f2c565b5b92915050565b5f606082019050610f9f5f830186610a4a565b610fac6020830185610a4a565b610fb96040830184610a4a565b949350505050565b5f819050919050565b610fd381610fc1565b82525050565b5f67ffffffffffffffff82169050919050565b610ff581610fd9565b82525050565b5f61ffff82169050919050565b61101181610ffb565b82525050565b5f63ffffffff82169050919050565b61102f81611017565b82525050565b5f60a0820190506110485f830188610fca565b6110556020830187610fec565b6110626040830186611008565b61106f6060830185611026565b61107c6080830184611026565b9695505050505050565b5f8151905061109481610b0f565b92915050565b5f602082840312156110af576110ae610b07565b5b5f6110bc84828501611086565b91505092915050565b7f4e487b71000000000000000000000000000000000000000000000000000000005f52603260045260245ffd5b7f4e487b71000000000000000000000000000000000000000000000000000000005f52601260045260245ffd5b5f61112982610a41565b915061113483610a41565b925082611144576111436110f2565b5b828206905092915050565b5f81905092915050565b50565b5f6111675f8361114f565b915061117282611159565b5f82019050919050565b5f6111868261115c565b915081905091905056fea264697066735822122082fc3078424d3c6aab8f8ea89c85785bcca18051cde2d770a1f9cb1daeec681664736f6c634300081c0033000000000000000000000000000000000000000000000000002386f26fc10000000000000000000000000000000000000000000000000000000000000000001e0000000000000000000000008103b0a8a00be2ddc778e6e7eaa21791cd364625474e34a077df58807dbe9c96d3c009b23b3c6d0cce433e59bbf5b34f823bc56c0000000000000000000000000000000000000000000000000000000000003072000000000000000000000000000000000000000000000000000000000007a120",
        "nonce": "0x1c",
        "chainId": "0xaa36a7"
      },
      "additionalContracts": [],
      "isFixedGasLimit": false
    },
    {
      "hash": "0xdb98e08f3070f22b552ecaf890131ab08dcf994f9c3a8972d92bab0fbc72533b",
      "transactionType": "CALL",
      "contractName": null,
      "contractAddress": "0x8103b0a8a00be2ddc778e6e7eaa21791cd364625",
      "function": "addConsumer(uint64,address)",
      "arguments": [
        "12402",
        "0x32507C0EA0FeC43BA688bb322F3fC96335a26F36"
      ],
      "transaction": {
        "from": "0x5547010288a6a4bdfaecce0d9d1ec929faa34911",
        "to": "0x8103b0a8a00be2ddc778e6e7eaa21791cd364625",
        "gas": "0x21eb0",
        "value": "0x0",
        "input": "0x7341c10c000000000000000000000000000000000000000000000000000000000000307200000000000000000000000032507c0ea0fec43ba688bb322f3fc96335a26f36",
        "nonce": "0x1d",
        "chainId": "0xaa36a7"
      },
      "additionalContracts": [],
      "isFixedGasLimit": false
    }
  ],
  "receipts": [
    {
      "status": "0x1",
      "cumulativeGasUsed": "0x296ba1e",
      "logs": [
        {
          "address": "0x8103b0a8a00be2ddc778e6e7eaa21791cd364625",
          "topics": [
            "0x464722b4166576d3dcbba877b999bc35cf911f4eaf434b7eba68fa113951d0bf",
            "0x0000000000000000000000000000000000000000000000000000000000003072"
          ],
          "data": "0x0000000000000000000000005547010288a6a4bdfaecce0d9d1ec929faa34911",
          "blockHash": "0x516390396e0d7d859b34073c2cdfa1a3b804961258a10631c244415cd6df7cc0",
          "blockNumber": "0x80a658",
          "blockTimestamp": "0x68382f6c",
          "transactionHash": "0xfc4130669a49f2d1e064c8e6296a218d217fb36678f3970ca05ef94e46411ae6",
          "transactionIndex": "0x158",
          "logIndex": "0x33d",
          "removed": false
        }
      ],
      "logsBloom": "0x0000000001000000000001000000000000000000000000000000000000000000010000000000000000000000000000000000000000000000000000000000000000000000000000000000000000000000000000000000000000000000000000000001000000000000000000000000000000000000000000000000000000000000000000000c000020000000000000000000000000000000000000000000000000000000000000000000000000000000000000000000000000000000000000000000000000000000200000000000000000000000000000000000000010000000000000000000000000000000000000000000000000000000000000000000000000",
      "type": "0x2",
      "transactionHash": "0xfc4130669a49f2d1e064c8e6296a218d217fb36678f3970ca05ef94e46411ae6",
      "transactionIndex": "0x158",
      "blockHash": "0x516390396e0d7d859b34073c2cdfa1a3b804961258a10631c244415cd6df7cc0",
      "blockNumber": "0x80a658",
      "gasUsed": "0xe98a",
      "effectiveGasPrice": "0x1e8515451",
      "from": "0x5547010288a6a4bdfaecce0d9d1ec929faa34911",
      "to": "0x8103b0a8a00be2ddc778e6e7eaa21791cd364625",
      "contractAddress": null
    },
    {
      "status": "0x1",
      "cumulativeGasUsed": "0x29937c8",
      "logs": [
        {
          "address": "0x779877a7b0d9e8603169ddbd7836e478b4624789",
          "topics": [
            "0xddf252ad1be2c89b69c2b068fc378daa952ba7f163c4a11628f55a4df523b3ef",
            "0x0000000000000000000000005547010288a6a4bdfaecce0d9d1ec929faa34911",
            "0x0000000000000000000000008103b0a8a00be2ddc778e6e7eaa21791cd364625"
          ],
          "data": "0x00000000000000000000000000000000000000000000000029a2241af62c0000",
          "blockHash": "0x516390396e0d7d859b34073c2cdfa1a3b804961258a10631c244415cd6df7cc0",
          "blockNumber": "0x80a658",
          "blockTimestamp": "0x68382f6c",
          "transactionHash": "0x497c8cc86b06308a10de103a4b8e4a7b9d8dafc3ae7bd40b43f69559d70b1a17",
          "transactionIndex": "0x15a",
          "logIndex": "0x340",
          "removed": false
        },
        {
          "address": "0x779877a7b0d9e8603169ddbd7836e478b4624789",
          "topics": [
            "0xe19260aff97b920c7df27010903aeb9c8d2be5d310a2c67824cf3f15396e4c16",
            "0x0000000000000000000000005547010288a6a4bdfaecce0d9d1ec929faa34911",
            "0x0000000000000000000000008103b0a8a00be2ddc778e6e7eaa21791cd364625"
          ],
          "data": "0x00000000000000000000000000000000000000000000000029a2241af62c0000000000000000000000000000000000000000000000000000000000000000004000000000000000000000000000000000000000000000000000000000000000200000000000000000000000000000000000000000000000000000000000003072",
          "blockHash": "0x516390396e0d7d859b34073c2cdfa1a3b804961258a10631c244415cd6df7cc0",
          "blockNumber": "0x80a658",
          "blockTimestamp": "0x68382f6c",
          "transactionHash": "0x497c8cc86b06308a10de103a4b8e4a7b9d8dafc3ae7bd40b43f69559d70b1a17",
          "transactionIndex": "0x15a",
          "logIndex": "0x341",
          "removed": false
        },
        {
          "address": "0x8103b0a8a00be2ddc778e6e7eaa21791cd364625",
          "topics": [
            "0xd39ec07f4e209f627a4c427971473820dc129761ba28de8906bd56f57101d4f8",
            "0x0000000000000000000000000000000000000000000000000000000000003072"
          ],
          "data": "0x000000000000000000000000000000000000000000000000000000000000000000000000000000000000000000000000000000000000000029a2241af62c0000",
          "blockHash": "0x516390396e0d7d859b34073c2cdfa1a3b804961258a10631c244415cd6df7cc0",
          "blockNumber": "0x80a658",
          "blockTimestamp": "0x68382f6c",
          "transactionHash": "0x497c8cc86b06308a10de103a4b8e4a7b9d8dafc3ae7bd40b43f69559d70b1a17",
          "transactionIndex": "0x15a",
          "logIndex": "0x342",
          "removed": false
        }
      ],
      "logsBloom": "0x0000001401000000000000000000000000000000000000020000000002008000000000000000800000000000000000000000000000000000000000000000000000000000000000000000000800000000000000000000000000002000000000000001000000000000000000000000000000000000400000000000001000000000000000000c000020000000000000800010000020000000000000000000000000000000000000000000000000000000000000000000000000000400010000000000000002000000000000000000000000000000000000000100000010000000000000000000000000000004000000000000000000000000000000000000000000",
      "type": "0x2",
      "transactionHash": "0x497c8cc86b06308a10de103a4b8e4a7b9d8dafc3ae7bd40b43f69559d70b1a17",
      "transactionIndex": "0x15a",
      "blockHash": "0x516390396e0d7d859b34073c2cdfa1a3b804961258a10631c244415cd6df7cc0",
      "blockNumber": "0x80a658",
      "gasUsed": "0x12a4a",
      "effectiveGasPrice": "0x1e8515451",
      "from": "0x5547010288a6a4bdfaecce0d9d1ec929faa34911",
      "to": "0x779877a7b0d9e8603169ddbd7836e478b4624789",
      "contractAddress": null
    },
    {
      "status": "0x1",
      "cumulativeGasUsed": "0x2a98e7f",
      "logs": [],
      "logsBloom": "0x00000000000000000000000000000000000000000000000000000000000000000000000000000000000000000000000000000000000000000000000000000000000000000000000000000000000000000000000000000000000000000000000000000000000000000000000000000000000000000000000000000000000000000000000000000000000000000000000000000000000000000000000000000000000000000000000000000000000000000000000000000000000000000000000000000000000000000000000000000000000000000000000000000000000000000000000000000000000000000000000000000000000000000000000000000000",
      "type": "0x2",
      "transactionHash": "0xaa7f52a7087d5bb9c91056545098e3002a02bf99dc80a2f72405a79490c56ca4",
      "transactionIndex": "0x15b",
      "blockHash": "0x516390396e0d7d859b34073c2cdfa1a3b804961258a10631c244415cd6df7cc0",
      "blockNumber": "0x80a658",
      "gasUsed": "0x1056b7",
      "effectiveGasPrice": "0x1e8515451",
      "from": "0x5547010288a6a4bdfaecce0d9d1ec929faa34911",
      "to": null,
      "contractAddress": "0x32507c0ea0fec43ba688bb322f3fc96335a26f36"
    },
    {
      "status": "0x1",
      "cumulativeGasUsed": "0x2ab0191",
      "logs": [
        {
          "address": "0x8103b0a8a00be2ddc778e6e7eaa21791cd364625",
          "topics": [
            "0x43dc749a04ac8fb825cbd514f7c0e13f13bc6f2ee66043b76629d51776cff8e0",
            "0x0000000000000000000000000000000000000000000000000000000000003072"
          ],
          "data": "0x00000000000000000000000032507c0ea0fec43ba688bb322f3fc96335a26f36",
          "blockHash": "0x516390396e0d7d859b34073c2cdfa1a3b804961258a10631c244415cd6df7cc0",
          "blockNumber": "0x80a658",
          "blockTimestamp": "0x68382f6c",
          "transactionHash": "0xdb98e08f3070f22b552ecaf890131ab08dcf994f9c3a8972d92bab0fbc72533b",
          "transactionIndex": "0x15c",
          "logIndex": "0x343",
          "removed": false
        }
      ],
      "logsBloom": "0x0000000001000000000000000000000000000000000000000000000000000000000000000000000000000000000000000000000000000000000000000000000000000000000000000000000000000000000000000000000000000000000000000001000000008000000000000000000000000000000000000000000000000000000000000c000020000000000000000000000000000000000000000000000000000000000000000000000080000000000000000000000000000000000000000000000000000000000000000000000000000000000000000000020010000000000000000000000000000000000000000000000000000000000000000000000000",
      "type": "0x2",
      "transactionHash": "0xdb98e08f3070f22b552ecaf890131ab08dcf994f9c3a8972d92bab0fbc72533b",
      "transactionIndex": "0x15c",
      "blockHash": "0x516390396e0d7d859b34073c2cdfa1a3b804961258a10631c244415cd6df7cc0",
      "blockNumber": "0x80a658",
      "gasUsed": "0x17312",
      "effectiveGasPrice": "0x1e8515451",
      "from": "0x5547010288a6a4bdfaecce0d9d1ec929faa34911",
      "to": "0x8103b0a8a00be2ddc778e6e7eaa21791cd364625",
      "contractAddress": null
    }
  ],
  "libraries": [],
  "pending": [],
  "returns": {
    "1": {
      "internal_type": "contract HelperConfig",
      "value": "0xC7f2Cf4845C6db0e1a1e91ED41Bcd0FcC1b0E141"
    },
    "0": {
      "internal_type": "contract Raffle",
      "value": "0x32507C0EA0FeC43BA688bb322F3fC96335a26F36"
    }
  },
  "timestamp": 1748512646,
  "chain": 11155111,
  "commit": "61ac9b0"
}